:100000008A110B288A15CD2DFE00030EF0000A0878
:10001000F1008A15B7288A15FF288730F5002030AF
:10002000B926851708008F30F5002030B9268517CE
:1000300008003608F300F40102278A113508F3009E
:10004000F4011B2F4430D00006305A278A119C251A
:1000500083120313440808004430D00004305A27A8
:100060008A119C258A11831203134408E53A031967
:10007000013400340330F5002330B9268A110830EA
:10008000F5003130B9268A11E330D2258A112430A7
:10009000F501F50AB9268A112130F501F50AB92EC4
:1000A00083120313C901FA30F300F40102278A1105
:1000B000FA30F300F4011B278A11CA01F301F30A95
:1000C000F4019E258A119C258A11EC278A11031CB4
:1000D0005E28F301F40102278A11F301F4011B27C2
:1000E0008A11CA01F301F30AF4019E258A119C25A5
:1000F0008A11EC278A11031C72280430C90A4902AC
:10010000031808005328D5008A1549228A11003A9D
:1001100003191029BC08031D90288A1574238A111D
:100120008316320883122D0603190D29831632080F
:100130008312AD002F218A11B700FF3A031910294D
:10014000E830A6000330A70083163808123A031DD2
:10015000D328B908031DB6283A088312A000210845
:10016000CE0083163A0814218A110D29390BC328B1
:100170003B088312A10083163B088312CE0020089F
:1001800014218A110D293908023A031D0D293A0854
:100190008312A00083163B088312A100CE00200822
:1001A00014218A110D293808113A031D0629B908AE
:1001B000031DDE285D218A11B9010D29390B0D2996
:1001C0008312ED08031DFD28ED01ED0A3308962585
:1001D0008A11340899258A11F301F30A3308F400CF
:1001E0000030F5015D258A11F301F30A3408F400AB
:1001F0000130F5015D258A11DC2870218A11063055
:10020000F80A7802031CDC28F801DC283808133AC5
:10021000031D0D298A1551238A113A278A11412776
:1002200007308A00550882008312CF004E08C800AC
:100230004F089B218A114808B3004E08C8004F0898
:1002400018228A114808B4003308A8278A11003000
:1002500072258A113408A8278A110130722D831261
:100260000330C601C500C901C701C8014608C23E26
:10027000840083130008F300B0304807F4004508F9
:100280007407F5008400000873060319C70A0430D8
:10029000C60AC80A4802031C36294708043A031D47
:1002A0005329490808004908033A0319FF34043068
:1002B000C90A490203180800342983120030ED01ED
:1002C000F301F401F5015D258A110130F301F40118
:1002D000F5015D258A11003096258A110030992D8F
:1002E0008229FA30B300B4018E29FA307F29FA301E
:1002F0007A290230B3008029023072290230B3011A
:10030000B4008E29780884000630040203188E2970
:1003100007308A000310040DF23E82003308962550
:100320008A11340899258A117B278A115D258A1143
:1003300082278A115D2DCA00F300F4014808F500F8
:10034000F601D5218A1195278A11EE218A117408A8
:10035000CC007308CB00FF30F300F4014C08F6002A
:100360004B08F500D5218A1195278A11EE218A11B3
:100370007408CC007308CB0000304C02FA3003192B
:100380004B02031CC629FA30CB00CC0100304C02D2
:10039000033003194B020318D0290230CB00CC01E3
:1003A0004C08C9004B08C8000800C501C601731CF1
:1003B000DF297508C5070318C60A7608C6070310A3
:1003C000F50DF60D0310F40CF30C74087304031D03
:1003D000D7294608F4004508F3000800C501C60106
:1003E000740873040319132AC701C70AF41BFC29F4
:1003F0000310F30DF40DF5290310C50DC60D740897
:100400007602031D052A73087502031C0F2A730860
:10041000F5027408031CF603F60245140310F40CED
:10042000F30CC70BFC294608F4004508F30008004C
:10043000CB00F3006430F401CA0048084A02F5001A
:10044000F601031CF603D5218A1189278A11EE21B2
:100450008A117408CD007308CC00FF30F300F4015A
:100460004D08F6004C08F500D5218A1189278A111C
:10047000EE218A117408CD007308CC0000304D02C3
:10048000FA3003194C02031C482AFA30CC00CD0183
:1004900000304D02033003194C020318522A023077
:1004A000CC00CD014D08C9004C08C8000800D70099
:1004B000E201E301E40156088400831300088C3A4A
:1004C000031D592DE830A6000330A7005608013E51
:1004D00084000008A500A4015608023E840000081C
:1004E000A4070318A50A25086906031D792A24080C
:1004F000680603194C2D2508E9002408E800BC080B
:10050000031D892C2403250403198B2A2508403A4E
:100510002404031DD32A5608033E8A1526268A1171
:100520000A30F300F4019E258A113F3045278A11D5
:1005300083120313E50165085607D800033E8400C3
:1005400083130008D90065083F3E8400000859065F
:10055000031DAF2A0530E50A6502031C9B2A6508C6
:10056000053A031D592D0530F300F4019E258A112B
:100570003F30D2258A110530F300F4019E258A11FF
:100580000130F2268A1150208A115D218A11FA3039
:10059000B301B400330896258A11340899258A11CD
:1005A000BC01BC0A592D2408103A25040319DD2A80
:1005B0002408403A2504031D892C0030F2268A11B4
:1005C0000530F300F4019E258A11E330D2258A110B
:1005D0000530F300F4019E258A11C52A6D08031920
:1005E000592D5030B901B90AEA004630EB00F30149
:1005F000F40102278A11F301F4011B278A11E20199
:10060000E301F301F30AF4019E258A119C258A1166
:1006100083120313E20A0319E30A003063027830FD
:1006200003196202031C012B330896258A11340832
:1006300099258A11592D6D080319592D0230B900D9
:10064000A030EA008C30EB006430BA01B800BB0186
:10065000592D6D080319942B33080319602BAF0132
:100660007B278A115D258A113308BC258A11E50094
:10067000E401E40A650803193F2B650B412B0430A4
:10068000E4006508023A031D472B0330E4006508C7
:10069000033A031D4D2B0230E40065080319532B68
:1006A0006508563E552B6508573E84008A150A207A
:1006B0008A11DA00DB01B7278A11003072258A110E
:1006C00034080319942BB001E6278A115D258A119D
:1006D0003408BC258A11E500E401E40A6508031921
:1006E000732B650B752B0430E4006508023A031D7B
:1006F0007B2B0330E4006508033A031D812B023095
:10070000E40065080319872B6508563E892B6508A8
:10071000573E84008A150A208A11DC00DD01B727C4
:100720008A11013072258A11B901592D6D080319FA
:10073000942B33080319CE2BB1017B278A115D2539
:100740008A113308BC258A11E500E401E40A650832
:100750000319AC2B650BAE2B0430E4006508023A9C
:10076000031DB42B0330E4006508033A031DBA2BC4
:100770000230E4006508053A0319C12B6508583EAC
:10078000C32B6508573E84008A150A208A11DE00B3
:10079000DF01B7278A11003072258A113408031946
:1007A000942BB201E6278A115D258A113408BC25F5
:1007B0008A11E500E401E40A65080319E12B650BE1
:1007C000E32B0430E4006508023A031DE92B0330F3
:1007D000E4006508033A031DEF2B0230E4006508CE
:1007E000053A0319F62B6508583EF82B6508573E65
:1007F00084008A150A208A11E000E1018F2B6D0820
:100800000319592D330803191C2C340803191C2C07
:10081000330864278A115D258A116208A8278A1186
:10082000003072258A1182278A115D258A11E027FE
:100830008A11013072258A11B308031D592D34081D
:100840000319592D0310340CE5007B278A115D250F
:100850008A11A1278A11003072258A1182278A11F4
:100860005D258A11A1278A11013072258A11592D1F
:100870006D080319592D33080319552C3408031931
:10088000552C330864278A115D258A11E0278A11C7
:10089000003072258A1182278A115D258A1162082B
:1008A000A8278A11013072258A1133080319592D9E
:1008B000B408031D592D0310330CE5007B278A1162
:1008C0005D258A11A1278A11003072258A1182279D
:1008D0008A115D258A11A1278A11013072258A119A
:1008E000592DED08031D7D2CED01ED0A33089625E9
:1008F0008A11340899258A11942B70218A110630A7
:10090000F80A7802031C942BF801942B5D218A11BC
:10091000942B2508003A03199A2C023A0319AE2C9D
:10092000223A0319B32C603A0319B82CC03A0319C0
:10093000BD2C592D2408013A0319712C033A0319CF
:10094000292B123A0319862C303A0319962B603A58
:100950000319862CC03A03191B2B592D2408003A81
:100960000319382C592D2408003A0319FF2B592D4F
:100970002408003A0319712C592D2408003A031950
:10098000EE2A592D6D080319592D33080319E72C48
:10099000AF08031DD12C003090258A11BE278A1183
:1009A000D32CE501E50A65080319E72CAF01AF0A6E
:1009B0003308AE278A1103195802031CE12CFA30C0
:1009C000E32C3308143ECC278A1172258A1134088F
:1009D0000319592DB008031DF32C013090258A11FD
:1009E000BE278A11F52CE501E50A65080319592D82
:1009F000B001B00A3408AE278A1103195802031C4B
:100A0000032DFA30052D3408143EC4278A117225AF
:100A10008A11592D6D080319592D330803192C2DEE
:100A2000B108031D192D003090258A11BE278A11A7
:100A30001B2DE501E50A650803192C2D1630B101BF
:100A4000B10A3302031C272D3308EC3E282D023057
:100A5000CC278A1172258A1134080319592DB2083E
:100A6000031D382D013090258A11BE278A113A2D99
:100A7000E501E50A65080319592D1630B201B20ADD
:100A80003402031C462D3408EC3E472D0230C427A7
:100A90008A1172258A11592D2508003A0319512D02
:100AA000592D2408023A0319C22C223A03190A2D9F
:100AB000592D00308A0057088200F600A03E8400BD
:100AC0007408831380007608A23E840074088000B6
:100AD0007608AC3E8400730880007608A63E840049
:100AE00080010800F600023076020318080074083E
:100AF000031908007608A03E840073088313800061
:100B00007608A43E8400740880007608A83E84001D
:100B1000750880007608AA3E84008001800A0800DB
:100B2000F300AA3E8400831300080800F300B50018
:100B30000800F300B60008006400080083120313E5
:100B4000C501C60174084602031DA82D730845029D
:100B500003180800C7010A3047020318B82DC8015E
:100B6000203048020318B62DC80AB02DC70AAB2D95
:100B7000C50A0319C60AA22DF400F501F50175088E
:100B8000513E84008A150A208A11F300740873020A
:100B90000318CC2D750808000530F50A75020318F6
:100BA0000534BF2DC800043E840083130008F500FF
:100BB0002530F513B9268A11D4278A113030C4267E
:100BC0008A11D4278A112A30C42E2330F501F50A60
:100BD000B9268A111A30F5002530B9268A1112304B
:100BE000F5003130B9268A116830DA278A113030A1
:100BF000C4268A116530DA278A112A30C4268A1160
:100C00002430F501B9268A112130F501B92E4F3073
:100C1000840083160313580883138000840A59083C
:100C20008000840A5A088000840A5B088000840AD5
:100C30005C0880005D088312D40083165E0883126E
:100C4000D50083165F088312D600493084008316CE
:100C500052088000840A53088000840A54088000E7
:100C6000840A55088000840A56088000840A5708C0
:100C7000800083126C08DA00831660088312D700A4
:100C8000831661088312D800831662088312D90084
:100C9000DB0132278A115A30F5005330B9268A1108
:100CA000A530F5005330B9268A11E130F501B92697
:100CB0008A11E230F501B9268A117030F50027302B
:100CC000B9268A112230F501F50AB9268A110330B6
:100CD000F5002330B9268A110830F5003130B926E5
:100CE0008A11E330D2258A114F30C5000530C60184
:100CF000C7003F30C4268A114930C5000630C601FE
:100D0000C7003A30C4268A115A30C5003930C601AE
:100D1000C701C70AC4268A115430C5000330C60172
:100D2000C7003E30C4268A115730C5000330C601C3
:100D3000C7003B30C4268A113C30F501B9268A1120
:100D40000E30F5002630B9268A117330F500503088
:100D5000B9268A112430F501F50AB9268A11213005
:100D6000F501F50AB9268A11DB145B08F5003D3060
:100D7000B92EF6008312031309117608DD268A11B5
:100D80007508DD2609150800F5000911DD268A1110
:100D9000F601470876020318DB2E76084507840023
:100DA00046080318460AFF008A1500208A11DD262E
:100DB0008A11F60AC92E09150800F300F4018910FA
:100DC000F31FE42E8516E52E85120310F30D89140A
:100DD000051A73140830F40A74028910031CE02EFB
:100DE00073080800D30053080319F92EE530C40036
:100DF000FA2EC4019C25831203134408CF0004304B
:100E00008A15402E831203131708C500CF30C5057D
:100E1000730EF0397039C504450897007408F60060
:100E20007308F5000310F60CF50C0310F60CF50C26
:100E30007508950008001D08C500CF30C505730E64
:100E4000F0397039C50445089D007408F600730830
:100E5000F5000310F60CF50C0310F60CF50C7508F4
:100E60009B000800831609118910851285138515CA
:100E700005160800E130F501B9268A11E230F501C6
:100E8000B92E7030F5002730B92ED200D301D3012E
:100E90009C258A118312031353085207D00053086C
:100EA000083E5A278A1183120530D30A5302031CC5
:100EB000482F9C2DD1005030CC005108CD00500857
:100EC000CE0001308A15E22EE200E3013408E20789
:100ED0000318E30A00306302FB3003196202031CAB
:100EE000742FFA30E200E301F301F30A3308F4004F
:100EF0000030F5010800F301F30A3308F400003074
:100F0000F5010800F301F30A3408F4000130F5019B
:100F100008007408CD007308CC006430F300F401BD
:100F20004D08F6004C08F50008007408CC00730862
:100F3000CB006430F300F4014C08F6004B08F500D8
:100F400008006508F3000330F401F40AF500080016
:100F5000F3000330F401F40AF5000800143ED80051
:100F6000003003180130D90000305902FA34E5008E
:100F7000F300F401F40A6408F5000800003A0030B8
:100F800003190130E5000800E500F3000130F40129
:100F9000F40AF501F50A0800E500F3000030F40159
:100FA000F40AF501F50A08004808C5000530C60135
:100FB000C7000800C5008030C6000330C700080025
:100FC0000330F301F401F40AF5000800F301F30A19
:100FD000F4000130F5010800831278300313CA0AC7
:100FE0004A0208008A1171298A1175298A11772904
:100FF0008A1179298A117C298A117E298A15E02D86
:10100000FF1B0A2883137F1883170008840A03191B
:10101000FF0A080008308A000408840A82070034A6
:10102000D634C534443420345934DE34E1348F347A
:101030001B34A534AF3442347B344E34CD34603469
:10104000EB346234223490342C34EF34F034C7342F
:101050008D34D2345734A1343D34A7346634B0349F
:10106000753431341134483496347734F834E334F9
:101070004634E934C7348D34D2345734A1343D3446
:10108000A7346634B034753431341134483496346E
:101090007734F834E3344634E934AB34D034413473
:1010A000923453342A34FC34AB34CE3426340D34E9
:1010B0001E3499347834003422349934DE34FE34CA
:1010C000AF344B3422340D3405340034FA346434F4
:1010D0003234103407340234003400340034003425
:1010E00000340034003400342D34D734B934CC34D7
:1010F000CC34CC34FFFFFFFF8B170800F3008316BE
:101100008F009001080083160313811383120617C2
:1011100086170800F300900190040B1783160C1437
:1011200008002C3083128E00FC308F000C1010143D
:10113000080064008001840A0406031900340406D0
:101140009A28F300F0308316810573088104831216
:101150000317051464000800BE017908031908008C
:10116000F9037A08F300FA0A7A06BE00080083162B
:10117000031383120C08F2004330F205721CC128DD
:10118000C82071088A00700E8300FE0E7E0E0900D2
:1011900010102C308E00FC308F00F90A270826042E
:1011A0000319D8280130A6020030031CA703A702A8
:1011B0000C1010140800F400920183160715C030BB
:1011C000831297050F309704CF309705950183164A
:1011D0008714C03083129D050F309D04CF309D05CC
:1011E0009B0173088316920083128C108030920545
:1011F0007408920412158316871007110800203016
:10120000F701F801F901FA018313840045308A15CA
:1012100099208A15A0308400D2308A1599208A1529
:1012200083164530D2002130D3003F30D4002D301A
:10123000D5005C30D6004030D7000A30D8006D3081
:10124000D9006730DA009C30DB004630DC00163015
:10125000DD003330DE002730DF000B30E000DF3010
:10126000E1000230E200A530E3008D30E4001E30E2
:10127000E500C930E6006B30E7008312FF30E8007C
:10128000E9000130EA00EB01EC00ED0083018A1572
:10129000AC2C0630AC0A2C02031C0800AC018B21DC
:1012A0008A15390803190800BA08031D0800023A14
:1012B000031D08001130B80A3802031C0800B801E9
:1012C0007C2900308A1196258A1500308A119925CB
:1012D000BB0A080033088A1196258A153408662946
:1012E000612933088A1196258A1534088A119925AF
:1012F000BA01BA0ABB0108003B08003A0319612988
:10130000013A03196A29033A03197029013A0319AA
:1013100071298A290800C9014908AC3E8400831359
:1013200080080319C3294908AA3E840080080319CC
:10133000C3294908A43E84000008C6004908A63E07
:101340008400800A0008C70046084702031CC3291E
:101350004908A63E840080014908C9218A15C800B1
:101360004908AE3E8400480880004908AA3E84002F
:10137000480880004908A23E84000008F400F501F6
:10138000490822228A150230C90A490203180800B6
:101390008C29C500A23E84000008F3004508A03E49
:1013A00084000008F4007308740245080318012A39
:1013B000A23E84000008F300F4014508A83E840022
:1013C0007408F60000087302F500031CF6034508D4
:1013D000A03E84007608803A803C031DF129750800
:1013E0000002031CFA29831203134508A03E2E2293
:1013F00080000034831203134508A83E2E22800289
:101400000134A83E84000008F3004508A23E840091
:1014100000087307F400F501F50D4508A03E8400AF
:101420007508803AF60080307602031D192A0008FC
:1014300074020318F329831203134508A83E2E22D1
:1014400080070134F600F608031D2A2A7408B30049
:101450008A11962D7408B4008A11992D8400831383
:101460000008F3004508A23E840073080800CB0082
:1014700042238A15CA004A1F00344B08F500480869
:10148000F60061302A238A113A278A158A114127EA
:1014900001341230D301D401D001D101C800B030E1
:1014A00018238A15003A0319DF2AD4015408163E7E
:1014B00084008A150A208A15CD0054082E3E840027
:1014C0008A150A208A15CE005408B03E8400831382
:1014D00000084E064D06CF005408B03E84004F0869
:1014E00080001230D40A5402031C562A8316410885
:1014F0008312CD00CE01CE00CD01831640088312A9
:101500004D07D0004E0803184E0AD100D4015408EC
:10151000403E84008A150A208A15CD005408B03E4A
:10152000840000084D06CE005408B03E84004E08EA
:1015300080001030D40A5402031C872A83163F0807
:101540008312D2000730D4005408B03E8400520801
:1015500080060F30D40A5402031CA42A1030F30072
:10156000B030F401E1228A1551087406031DBA2A2D
:1015700050087306031DDF2A8316B308031DCC2A07
:10158000B408031DCC2AB508031DCC2AB608031DD8
:10159000CC2A8312D301DF2A3308FF3A031DDC2A49
:1015A0003408FF3A031DDC2A3508FF3A031DDC2A04
:1015B0003608FF3A0319C92A8312D301D30A530804
:1015C0000800C8005530C901CB00CC000130F3023F
:1015D0000030031CF403F402730A0319740A03199C
:1015E000132B49084807C50084000008C600C7013E
:1015F000C700C6014608CB064708CC06C90ACA017F
:10160000CC1F0A2B21300310CB0DCC0DCB06103094
:10161000CC060D2B0310CB0DCC0D0830CA0A4A02A4
:101620000318E62A002B4C08F4004B08F3000800CE
:10163000CA0042238A15C900491F00344A08F50030
:101640004808F60061302A238A113A278A158A1140
:1016500041270134C60009118A11DD268A15C70108
:10166000760847020318402B47087507C500840019
:1016700000308A11DD268A1583138000C70A302BBB
:10168000091508000730462370390800F5000911D4
:101690008A11DD268A1500308A11DD26F60009152B
:1016A00008008A112F218A15D1000310D10D0310D3
:1016B000D10D5108103CCF00D0014F085002031843
:1016C0006E2B5108C63E84000008CE005108C23E71
:1016D00084004E088000D10AD00A5D2BC230C900B8
:1016E0001030CA001E30F12B83163008053A031D56
:1016F000852B8A112F218A15B700FF3A031D832BF2
:1017000089238A115020FF30B7008312BC01BC0A24
:1017100008000330CF000F30D0005008BE3E8400D8
:101720000008CE005008C23E84004E0880000430FD
:10173000D003500203188D2BD0014F08B03E840017
:101740000008CE005008C23E84004E0880000430DD
:10175000CF0AD00A5002031C9D2BC230C9001030A2
:10176000CA001E30F12BCD00CE01CE014C084E0236
:101770000318D32B8A119C258A15831203134E0854
:101780004B07F60084004D08D52383138000CD0A53
:101790008A119C258A15F301F30AF4018A119E250A
:1017A0008A15CE0AB62B8A119C2DC9005A248A1597
:1017B000A03027248A1542248A15490827248A152F
:1017C00042248A155A248A15A13027248A154224D6
:1017D0008A1501306D248A157408CA0067244A08E6
:1017E0000800CC00CD01CD014A084D020318122C8F
:1017F0008A119C258A15831203134D084907CB00D3
:10180000840083130008F6004C081424CC0A8A11C3
:101810009C258A150530F300F4018A119E258A154E
:10182000CD0AF42B8A119C2DC5005A248A15A030AC
:1018300027248A1542248A15450827248A1542241C
:101840008A15760827248A1542248A15672CF40005
:1018500083160613F501F41F302C83120617322C61
:101860008312061301300310F40D861753248A15D2
:101870000130861353248A150830F50A75020318BF
:1018800008002B2C831606138312061783160617DF
:10189000151783120130861353248A1501308617D9
:1018A000532486130800F300F3037308FF3A031967
:1018B0000800542C8316061383120130061786176E
:1018C00053248A1501300613532486130800A624D6
:1018D0008A158617532406170800C50083160617B5
:1018E00015178312C8010130861353248A158617F1
:1018F0000310C60DC70D061B4614013053248A156C
:101900000830C80A4802031C732CC508031D8B2C21
:1019100091248A158C2C9C244708F5004608F40075
:1019200008000130061753248A1501308617532406
:101930008A1501308613532CA6248A1553248A1540
:1019400001308617532486130617080083160613E2
:1019500083120130061308007130E6018A157E20DB
:101960008A15C830F300F4018A119E258A150000FB
:1019700083160313870186018312870186013D3098
:10198000F30001308A15DB208A15F301F4018A1176
:1019900002278A15F301F4018A111B278A150A30E0
:1019A000F300F4018A119E258A150A308A150C2647
:1019B0008A150A30F300F4018A119E258A158A11CE
:1019C00022208A15E700F12CFA30B500B601FF2C71
:1019D000FA30B501EF2CFA30EE2C0230B500B6002B
:1019E000FF2C6708003A0319E42C013A0319E82C8C
:1019F000033A0319EB2C013A0319ED2CFF2C35089F
:101A0000B3003608B4008A1119208A150430E70A99
:101A100067020318E70167088A150F268A158A15D9
:101A200083208A15C230CB001030CC001E308A15BE
:101A3000B3238A158A1107268A158A1113208A155D
:101A40001E30F300F4018A119E258A15E3308A11B5
:101A5000D2258A15F301F30A3308F4000030F501AA
:101A60008A115D258A15F301F30A3408F400013068
:101A7000F5018A115D258A158A157C208A1530307A
:101A80008A158A208A15E830F3000330F400F50146
:101A90008A1591208A150730A601A7018A15A12071
:101AA0008A15643083120313A0003230A100831220
:101AB0000313BD0803193E1C762DAA0A0319AB0AAD
:101AC00006302B02A63003192A02031C762DBD0115
:101AD000BD0AF301F30AF4018A119E258A1500302C
:101AE0008A150F268A158A119C258A1583120313DD
:101AF000BC0803193E1CA02DA80A0319A90A0B3023
:101B00002902BA3003192802031CA02DBC01BC0A0B
:101B10008A112C208A15E70067080319A02D3F3091
:101B20008A1145278A15F301F30AF4018A119E25CB
:101B30008A153F308A11D2258A158A119C258A156B
:101B4000831203133E1EBB2D27082604031DBB2D45
:101B500066080319B32DE6018A11E5258A158A1155
:101B60000D208A15BB2DE601E60A8A113A208A1556
:101B70008A1113208A15660BDB2D0830C8005D30F2
:101B8000C900B0308A1537228A15003A0319DB2DB7
:101B9000B030D60002308A11572AE7016708B03EFC
:101BA0008400083083138001E70A6702031CCE2DEE
:101BB0008A119C258A1583120313E6080319F12D57
:101BC0008A1119208A158A15AC208A153E1C082E08
:101BD0008A1549218A156430AE0A2E020318F42DA5
:101BE000082EFE308A118328AE0139080319082E09
:101BF0000130EA020030031CEB03EB026B086A04BD
:101C0000031D082EB901EA01EB018A115D218A1535
:101C10008A119C258A15572DF60015260034D3000D
:101C2000CF00063040268A119C2DF500F700831660
:101C300086131517061783120A308617A7278A15E9
:101C40008316061383120A300617A72FD400D50176
:101C5000D5018A119C258A15831203135508540750
:101C6000D300840083130008CF005508083E4026A7
:101C70008A150530D50A5502031C292E8A119C2D80
:101C8000D000D101CC004F08CD00503081268A15FC
:101C90008312D2005208031D0800F9278A15003864
:101CA00003190800FC30D10A5102031808004D2E18
:101CB000CC006B268A15003A031D013403104C0D2D
:101CC000AF278A15003A031D023464278A15003AAB
:101CD000031D03340034861383160613831206177C
:101CE0000310770CA7278A1586170310770CA727F0
:101CF0008A150310770CA7278A1506137708A727DC
:101D00000034CE006B268A15003A031D01340310FF
:101D10004E0DAF278A15003A031D023464278A1539
:101D2000003A031D03344C08AF278A15003A031DFF
:101D3000043464278A15003A031D05344D08AF2783
:101D40008A15003A031D063464278A15003A031DDC
:101D5000073421278A15003A031D08340034C501D1
:101D600006178316151706178312C70186137708FF
:101D7000A7278A1586170310770CA7278A15031043
:101D8000770CA7278A150030061B0130C6000030EB
:101D9000C608031D0130F5004708073C013ED22E5E
:101DA0000310F50DFF3E031DD02E7508C50403106A
:101DB000770CA7278A150830C70A4702031CB62EDE
:101DC00045080800CF006B268A15003A031D013430
:101DD00003104C0DAF278A15003A031D0234642707
:101DE0008A15003A031D03344D08AF278A15003ABF
:101DF000031D043464278A15003A031D05346B263D
:101E00008A15003A031D063403144C0DAF278A15BA
:101E1000003A031D073464278A15003A031D08346D
:101E20004E088400AF268A1580004F083C278A158B
:101E3000003A031D093421278A15003A031D0A348C
:101E40000034831286130310770CA7278A15831694
:101E50000613831206130310770CA7278A1586171B
:101E60000310770CA7278A157708A7278A15061766
:101E70007708A7278A15FB2FF60086130310770C27
:101E8000A7278A1583160613760803194A2F83128B
:101E900006174C2F831206130310770CA7278A15F9
:101EA00086170310770CA7278A157708A7278A15A6
:101EB00086137708F5000310F50C0310F50C750870
:101EC000A7278A150617FB2FCA0186137708A727AD
:101ED0008A15831615170617831206170310770C39
:101EE000A7278A1503308617F3007708DE278A159F
:101EF000A7278A150330F3007708DE278A15A7275E
:101F00008A15CB014B08453E84000030061B01308A
:101F1000831380000530CB0A4B02031C822FCA01B9
:101F2000CB014B08453E84008008031DCA0A0430DB
:101F30004A02031801340530CB0A4B02031C912FCF
:101F40000330F3007708DE278A15A7270034F30053
:101F5000F4017308740203180800F40AA92FC500DD
:101F6000831606138312C60186130310770CA72766
:101F70008A150130F5004608073C013EC12F0310C9
:101F8000F50DFF3E031DBF2F750845050319CA2F28
:101F90000617CB2F06130310770CA7278A15861771
:101FA0000310770CA7278A150310770CA7278A152B
:101FB0000830C60A460203180034B42FF400F601B4
:101FC00073080319F72FF501F50AF31BEA2F031025
:101FD000F30DE42F0310F60D73087402031CF42FA5
:101FE0007308F40276140310F30CF50BEA2F76084D
:101FF00008005030582E83160030151706170800B9
:00000001FF
