:100000008A110B288B170800FE00030EF0000A0867
:10001000F1008A1562298A152D296D143708113AC5
:10002000031D15281030A10122283708213A031D8D
:100030001C282030A40122283708413A031D262815
:100040004030A701AE01AF01B701ED008A155D2276
:100050008A11003A03198A2B3C08E3003D08E400AA
:100060003E08E5003F08E6004308E7003B08E800DB
:100070004108203A031D7129EB014028E901EB0AF0
:1000800003306B02031877280630F3006B088A15DB
:10009000EA248A11DE3E8400831300086306031DF0
:1000A0003E280630F3006B088A15EA248A11DF3EE9
:1000B000840064080006031D3E280630F3006B0828
:1000C0008A15EA248A11E03E840065080006031DB3
:1000D0003E280630F3006B088A15EA248A11E13EB7
:1000E000840066080006031D3E28E901E90AE908C4
:1000F000031DDB284B08DF0006300310DF0CFF3E3A
:10010000031D7D285F08EA000330EA056A02031830
:10011000EA016330D3000430D4000630F3006A08EB
:100120008A15EA248A11363E8A156D278A116830AD
:10013000D3000630D401D40AF3006A088A15EA24F1
:100140008A113B3E8A156D278A11EB0104306B0240
:100150000318C1286B08633E840083130008DF0086
:100160000630F3006A088A15EA248A11E000DE3EB0
:10017000E1006B086107E20084005F088000EB0A81
:10018000A6280630F3006A088A15EA248A11E33E9D
:1001900084006808831380000330EA0A6A020318A7
:1001A000EA013F30CB056A08DF00DF0CDF0C5F0C93
:1001B000C039CB04F6286B08EA006830D30006305B
:1001C000D401D40AF3006A088A15EA248A113B3E56
:1001D0008A156D278A110630F3006A088A15EA2409
:1001E0008A11E33E84006808831380000930EB0025
:1001F0000C306B0203181D290630F3006B088A15BA
:10020000EA248A11AC3E84000130DF00420A0A2948
:100210000310DF0DFF3E031D08295F08831300054F
:1002200003191529D801D80A1629D8016B08F73EF9
:100230008A15F9268A11EB0AF8284B30B701D3004A
:100240006E30D401D40A8A156D278A114B30D30041
:100250006E30D401D40A8A156D278A11EB010C3057
:100260006B02031847290630F3006B088A15EA244D
:100270008A11A83ED5000630D600F3006B088A1517
:10028000EA248A118A15D2248A11EB0A2F294B30CD
:10029000D5006E30D601D60A8A15D2248A116C0890
:1002A00003196B295E30CF0071308A1586278A11B9
:1002B0000530F300F4018A15DD268A11F630CF00EF
:1002C00072308A1586278A110530F300F4018A15E9
:1002D000DD268A11EC01EE01EE0A8A15D026ED0129
:1002E00008004108103A031979294108113A031D01
:1002F00008006708FF3A031908006D1E162AEB0173
:100300008329E901EB0A03306B020318C629063082
:10031000F3006B088A15EA248A11A83E840083132F
:1003200000086306031D81290630F3006B088A1557
:10033000EA248A11A93E840064080006031D81296D
:100340000630F3006B088A15EA248A11AA3E84005D
:1003500065080006031D81290630F3006B088A1525
:10036000EA248A11AB3E840066080006031D812939
:100370000630F3006B088A15EA248A11AC3E84002B
:1003800067080006031D8129E901E90AE908031D40
:10039000022A4B08EA000330EA056A020318EA0160
:1003A0006330D3000630D400F3006A088A15EA24CB
:1003B0008A118A156D278A11EB0106306B0203182A
:1003C000F8296B08633E840083130008DF000630C1
:1003D000F3006A088A15EA248A11E000A83EE100C9
:1003E0006B086107E20084005F088000EB0ADD29EA
:1003F0000330EA0A6A020318EA01FC30CB056A08F6
:10040000CB04122A6B08EA006830D3000630D4010E
:10041000D40AF3006A088A15EA248A11053E8A156F
:100420006D278A114208D80000305C2BED1EC12ACE
:10043000EB011C2AE901EB0A03306B0203185F2A67
:100440000630F3006B088A15EA248A11BA3E84004C
:10045000831300086306031D1A2A0630F3006B0895
:100460008A15EA248A11BB3E840064080006031D35
:100470001A2A0630F3006B088A15EA248A11BC3E5A
:10048000840065080006031D1A2A0630F3006B0875
:100490008A15EA248A11BD3E840066080006031D01
:1004A0001A2A0630F3006B088A15EA248A11BE3E28
:1004B000840067080006031D1A2AE901E90AE90811
:1004C000031DA72A4B08DF000310DF0C0310DF0C0D
:1004D0005F08EA000330EA056A020318EA016330A4
:1004E000D3000630D400F3006A088A15EA248A1182
:1004F000123E8A156D278A11EB0106306B02031834
:10050000982A6B08633E840083130008DF000630DE
:10051000F3006A088A15EA248A11E000BA3EE10075
:100520006B086107E20084005F088000EB0A7D2A07
:100530000330EA0A6A020318EA01F330CB056A08BD
:10054000DF000310DF0D03105F0DCB04BD2A6B0825
:10055000EA006830D3000630D401D40AF3006A08F8
:100560008A15EA248A11173E8A156D278A110230EE
:10057000F300F4018A15DD268A114208D800013003
:100580005C2B6D1F602BEB01C72AE901EB0A0330DE
:100590006B0203180A2B0630F3006B088A15EA2455
:1005A0008A11CC3E8400831300086306031DC52A0C
:1005B0000630F3006B088A15EA248A11CD3E8400C8
:1005C00064080006031DC52A0630F3006B088A156F
:1005D000EA248A11CE3E840065080006031DC52A60
:1005E0000630F3006B088A15EA248A11CF3E840096
:1005F00066080006031DC52A0630F3006B088A153D
:10060000EA248A11D03E840067080006031DC52A2B
:10061000E901E90AE908031D492B4B0E0F39EA00ED
:100620000330EA056A020318EA016330D30006309A
:10063000D400F3006A088A15EA248A11243E8A1538
:100640006D278A11EB0106306B0203183E2B6B08F5
:10065000633E840083130008DF000630F3006A085D
:100660008A15EA248A11E000CC3EE1006B0861079C
:10067000E20084005F088000EB0A232B0330EA0AC3
:100680006A020318EA01CF30CB056A0EF039CB04B9
:10069000592B6B08EA006830D3000630D401D40A25
:1006A000F3006A088A15EA248A11293E8A156D2703
:1006B0008A114208D80002308A15F9268A11B7013A
:1006C0004B30D3006E30D401D40A8A156D278A11BD
:1006D0004B30D3006E30D401D40A8A156D278A11AD
:1006E0000C30EB016B02031847290630F3006B084E
:1006F0008A15EA248A11A83ED5000630D600F300F8
:100700006B088A15EA248A118A15D2248A110C30C2
:10071000EB0A722B01302F02F53003192E02031C55
:100720000800EE01EE0AED0108008A155D228A112B
:10073000003A031908004108203A031D202C430801
:10074000FF3A0319962F0930EB000C306B020318A7
:10075000962F0630F3006B088A15EA248A11A83E0A
:1007600084003C0883130006031D1E2C0630F30092
:100770006B088A15EA248A11A93E84003D08000608
:10078000031D1E2C0630F3006B088A15EA248A111B
:10079000AA3E84003E080006031D1E2C0630F3000E
:1007A0006B088A15EA248A11AB3E84003F080006D4
:1007B000031D1E2C0630F3006B088A15EA248A11EB
:1007C000AD3E84003B0800060319962F0630F30067
:1007D0006B088A15EA248A11AD3E84003B0880002C
:1007E000063042020318962F8A15D0268A11093046
:1007F000EB000C306B020318962F0630F3006B08E9
:100800008A15EA248A11AC3E84000130DF00420AD6
:100810000B2C0310DF0DFF3E031D092C5F08831313
:1008200000050319162CD801D80A172CD8016B081B
:10083000F73E8A15F9268A11EB0AF92BEB0AA52B4C
:100840004108213A031DF82CE901EB01282CEB0AA1
:100850000C306B020318752C0630F3006B088A15F8
:10086000EA248A11A83E84003C0883130006031D75
:10087000272C0630F3006B088A15EA248A11A93E5A
:1008800084003D080006031D272C0630F3006B088A
:100890008A15EA248A11AA3E84003E080006031D38
:1008A000272C0630F3006B088A15EA248A11AB3E28
:1008B00084003F080006031D272C0630F3006B0858
:1008C0008A15EA248A11AD3E84003B08000603190C
:1008D000752C0630F3006B088A15EA248A11AD3EA8
:1008E00084003B088000E901E90A69080319962F92
:1008F000063042020318962F023043020318962F47
:10090000033044020318962F0630C308F300031D7A
:100910009D2C44088A15EA248A11E23E84000130A5
:10092000DF00420A952C0310DF0DFF3E031D932CC0
:100930005F08FF3A83138005AF2C44088A15EA2428
:100940008A11E23E84000130DF00420AA92C031024
:10095000DF0DFF3E031DA72C5F08831380040630C4
:10096000F30044088A15EA248A11E23ED3000630D7
:10097000D401D40AF30044088A15EA248A113A3EC5
:100980008A156D278A11F301F30AF4018A15DD2611
:100990008A11EB010C306B020318E22C0630F300D5
:1009A0006B088A15EA248A11A83ED5000630D600C5
:1009B000F3006B088A15EA248A118A15D2248A1159
:1009C000EB0ACA2C4B30D5006E30D601D60A8A15F8
:1009D000D2248A11430BEF2CD801D80AF32CC30878
:1009E000031D932FD80144088A15F9268A11932FE5
:1009F0004108103A0319002D4108113A031D7F2EBA
:100A00004308FF3A0319D92DEB0109306B02031893
:100A1000962F6C0B1B2D3C08113A031D1B2D3D0816
:100A2000563A031D1B2D3E08323A031D1B2D3F086D
:100A3000F93A03194C2D0630F3006B088A15EA24A5
:100A40008A11A83E84003C0883130006031DD72D9D
:100A50000630F3006B088A15EA248A11A93E840047
:100A60003D080006031DD72D0630F3006B088A15DC
:100A7000EA248A11AA3E84003E080006031DD72DF1
:100A80000630F3006B088A15EA248A11AB3E840015
:100A90003F080006031DD72D0630F3006B088A15AA
:100AA000EA248A11AD3E84003B0883130006031933
:100AB000D72D0630F3006B088A15EA248A11AD3E63
:100AC00084003B0880000630F3006B088A15EA2496
:100AD0008A11AC3E840043080006031DD72DEA08A6
:100AE000031D772DEA01EA0A8A15D0268A11C40867
:100AF000031DC02D03306B020318932DF608031D50
:100B0000D72D4208023A031D8C2D0230D800003048
:100B10008A15F9268A11D72D4208D80000308A1587
:100B2000F9268A11D72D06306B020318AC2DF70871
:100B3000031DD72D4208023A031DA52D0230D8000F
:100B400001308A15F9268A11D72D4208D8000130C4
:100B50008A15F9268A11D72DF808031DD72D4208CA
:100B6000023A031DB92D0230D8008A15F9268A11E0
:100B7000D72D4208D80002308A15F9268A11D72DC0
:100B8000AC01AD01360BC62DA901B60103306B02D5
:100B90000318CC2D2914D32D06306B020318D22D47
:100BA000A914D32D29154208AA004408AB00EB0A6A
:100BB000052DEB0109306B020318962F6C0BF02DFD
:100BC0003C08113A031DF02D3D08563A031DF02D47
:100BD0003E08323A031DF02D3F08F93A0319212E41
:100BE0000630F3006B088A15EA248A11A83E8400B7
:100BF0003C0883130006031D7D2E0630F3006B08AE
:100C00008A15EA248A11A93E84003D080006031DC6
:100C10007D2E0630F3006B088A15EA248A11AA3E5D
:100C200084003E080006031D7D2E0630F3006B088D
:100C30008A15EA248A11AB3E84003F080006031D92
:100C40007D2E0630F3006B088A15EA248A11AD3E2A
:100C500084003B088313000603197D2E0630F30041
:100C60006B088A15EA248A11AD3E84003B08800097
:100C70008A15D0268A11C408031D702EF608031D9C
:100C80004D2E4208023A031D472E0230482E4208DC
:100C9000D80000308A15F9268A11F708031D5C2E4A
:100CA0004208023A031D562E0230572E4208D80041
:100CB00001308A15F9268A11F808031D7D2E420895
:100CC000023A031D692E0230D8008A15F9268A11CE
:100CD0007D2E4208D80002308A15F9268A117D2E11
:100CE000AC01AD01360B762EA901B6012914A91469
:100CF00029154208AA004408AB00EB0ADA2D410886
:100D0000303A031D962F0630F3006B088A15EA244B
:100D10008A11AD3E84003B08831300060319F52EAB
:100D20000630F3006B088A15EA248A11AD3E840070
:100D30003B088000E901EB01BB2E0630F3006B0895
:100D40008A15EA248A11AC3E840043080006031D7C
:100D5000BA2E0130DF000330F3006B088A154721FB
:100D60008A11013EB52E0310DF0DFF3E031DB32E89
:100D70005F08E904EB0A09306B020318F52E063010
:100D8000F3006B088A15EA248A11A83E84003C0807
:100D90000006031DBA2E0630F3006B088A15EA24FC
:100DA0008A11A93E84003D080006031DBA2E0630B4
:100DB000F3006B088A15EA248A11AA3E84003E08D3
:100DC0000006031DBA2E0630F3006B088A15EA24CC
:100DD0008A11AB3E84003F080006031DBA2E43086B
:100DE000FF3A031D9D2E0730E90469080319962F69
:100DF000033042020318962FEB0103306B020318F5
:100E00008B2F0130DF006B0A072F0310DF0DFF3E31
:100E1000031D052F5F0869050319892FC208031DEB
:100E20002F2F0130DF006B08E0006007013E1A2F12
:100E30000310DF0DFF3E031D182F5F08CC040130A7
:100E4000DF0003146B0D013E272F0310DF0DFF3E63
:100E5000031D252F5F08FF3ACC05D801502F420B08
:100E6000522F0130DF006B08E0006007013E3A2F8F
:100E70000310DF0DFF3E031D382F5F08FF3ACC053E
:100E80000130DF0003146B0D013E482F0310DF0D0E
:100E9000FF3E031D462F5F08FF3ACC05D801D80A54
:100EA0006B08862F4208023A031D892F0130DF00AC
:100EB00003146B0D013E5E2F0310DF0DFF3E031D7B
:100EC0005C2F5F08CC040130DF006B08E000600796
:100ED000013E6C2F0310DF0DFF3E031D6A2F5F08DC
:100EE000FF3ACC05EB08031D792F2008D80000300D
:100EF000862F6B0B7F2F2308D8000130862F6B08BD
:100F0000023A031D892F2608D80002308A15F926D7
:100F10008A11EB0AFD2E4C30D3007030D401D40A74
:100F20008A156D278A118A15D0268A116430F3003C
:100F3000F4018A15DD268A118A15FF238A150F2CE4
:100F4000080071308A1514218A11870170308604D7
:100F5000831207148A15F8248A11F430F300013043
:100F6000F4008A15DD268A1100008A151F218A11D6
:100F70008A1519218A118A154A238A118A15132480
:100F80008A1130308A1526218A111030F30027305B
:100F9000F400F5018A11F7278A118A1561248A1154
:100FA0008A1102208A112008F30000308A158A2154
:100FB0008A112308F30001308A158A218A11260834
:100FC000F30002308A158A218A118A15BF218A11FD
:100FD0008A15D3258A118A1521258A11D32F6400F9
:100FE0008001840A0406031900340406F02FEC3053
:100FF00083128E00D8308F000C1010140800FFFFF1
:1010000008308A000408840A82070034D634C534C4
:10101000443420345934DE34E1348F341B34A53465
:10102000AF3442347B344E34CD346034EB346234EC
:10103000223490342C34EF34F034C7348D34D2342D
:101040005734A1343D34A7346634B0347534313468
:101050001134483496347734F834E3344634E93480
:10106000C7348D34D2345734A1343D34A734663478
:10107000B034753431341134483496347734F8341C
:10108000E3344634E934AB34D0344134923453340D
:101090002A34FC34AB34CE3426340D341E34993427
:1010A0007834003422349934DE34453421343F34EA
:1010B0002D345C344034453421343F342D345C3499
:1010C00040340A346D3467349C3446340A346D3409
:1010D00067349C3446340B34DF34023416343334F2
:1010E00027340B34DF3402341634333427342D34B0
:1010F000D734B934CC34CC34CC34E1340134FFFFB0
:10110000FFFFFFFFFFFFFFFFFFFFFFFFFFFFFFFFEF
:10111000FFFFFFFFFFFFFFFFFFFFFFFFFFFFFFFFDF
:10112000FFFFFFFFFFFFFFFFFFFFFFFFFFFFFFFFCF
:10113000FFFFFFFFFFFFFFFFFFFFFFFFFFFFFFFFBF
:10114000FFFFFFFFFFFFFFFFFFFFFFFFFFFFFFFFAF
:10115000FFFFFFFFFFFFFFFFFFFFFFFFFFFFFFFF9F
:10116000FFFFFFFFFFFFFFFFFFFFFFFFFFFFFFFF8F
:10117000FFFFFFFFFFFFFFFFFFFFFFFFFFFFFFFF7F
:10118000FFFFFFFFFFFFFFFFFFFFFFFFFFFFFFFF6F
:10119000FFFFFFFFFFFFFFFFFFFFFFFFFFFFFFFF5F
:1011A000FFFFFFFFFFFFFFFFFFFFFFFFFFFFFFFF4F
:1011B000FFFFFFFFFFFFFFFFFFFFFFFFFFFFFFFF3F
:1011C000FFFFFFFFFFFFFFFFFFFFFFFFFFFFFFFF2F
:1011D000FFFFFFFFFFFFFFFFFFFFFFFFFFFFFFFF1F
:1011E000FFFFFFFFFFFFFFFFFFFFFFFFFFFFFFFF0F
:1011F000FFFFFFFFFFFFFFFFFFFFFFFFFFFFFFFFFF
:10120000FFFFFFFFFFFFFFFFFFFFFFFFFFFFFFFFEE
:10121000FFFFFFFFFFFFFFFFFFFFFFFFFFFFFFFFDE
:10122000FFFFFFFFFFFFFFFFF30083168F0090011A
:101230000800831681130E30860495040800831677
:10124000031381138312871407150800F30090011C
:1012500090040B1783160C1408002030F601F701D8
:10126000F801F901FA01831384004F308A11EF2746
:101270008A15A0308400F0308A11EF270130EC008D
:101280001030ED000130EE0083018A11A12FCF0054
:10129000D101730803196029D001D00AF31B532927
:1012A0000310F30D4D290310D10D73084F02031CD9
:1012B0005D297308CF0251140310F30CD00B53298E
:1012C000510808008316031383120C08F200433000
:1012D000F205721C6C29732171088A00700E83005C
:1012E000FE0E7E0E09001010EC308E00D8308F00FC
:1012F000B00A0319B10AB20A0319B30AB40A0319EE
:10130000B50AAE0A0319AF0AAC0A0319AD0A0C10EC
:1013100010140800F400B3297308031994298316E4
:10132000061383120617080083160613831206138A
:10133000080073080319A1298316861283128616E2
:101340000800831686128312861208007308031998
:10135000AE2983160612831206160800831606129B
:101360008312061208007408003A03198C29013A06
:1013700003199929033A0319A629BE290800EB018C
:10138000E901EA016E08013A8A110319952B8A15C1
:10139000033A03195B2A013A0319D0298A11A02FB5
:1013A00083160710831207143708113A031DED291D
:1013B000B701A201EB0112306B020318212AFF30A2
:1013C000CF006B088A1586278A15F301F30AF4010A
:1013D0008A15DD268A15EB0ADB293708213A031D19
:1013E000072A1230B701A501EB0024306B02031865
:1013F000212AFF30CF006B088A1586278A15F30152
:10140000F30AF4018A15DD268A15EB0AF529370857
:10141000413A031D212A2430B701A801EB003630E0
:101420006B020318212AFF30CF006B088A1586272C
:101430008A15F301F30AF4018A15DD268A15EB0AF1
:101440000F2A3630EB0048306B020318342ACF01E4
:101450006B088A1586278A15F301F30AF4018A15A9
:10146000DD268A15EB0A232AEB010C306B020318E8
:101470004D2A0630F3006B088A15EA248A15A83E27
:10148000D5000630D600F3006B088A15EA248A15C9
:101490008A15D2248A15EB0A352A8A15D0268A1590
:1014A0006430F300F4018A15DD268A158A15D026EA
:1014B000EE01EE0A08008A110D281230DD01DE016E
:1014C000DA01DB01D300393023238A15003A0319EE
:1014D000EA2ADE015E08163E84008A1500208A157D
:1014E000D7005E082E3E84008A1500208A15D80099
:1014F0005E08393E84008313000858065706D90059
:101500005E08393E8400590880001230DE0A5E020F
:10151000031C6A2A4A08D700D801D800D701490815
:101520005707DA0058080318580ADB00DE015E0886
:10153000403E84008A1500208A15D7005E08393E97
:10154000840000085706D8005E08393E8400580819
:1015500080001030DE0A5E02031C972A4808DC0077
:101560000730DE005E08393E84005C0880060F30DC
:10157000DE0A5E02031CB22A1030F3003930F40197
:10158000EC228A155B087406031DC82A5A087306E4
:10159000031DEA2ABC08031DD82ABD08031DD82A4A
:1015A000BE08031DD82ABF08031DD82ADD01EA2A78
:1015B0003C08FF3A031DE82A3D08FF3A031DE82ACC
:1015C0003E08FF3A031DE82A3F08FF3A0319D62ACE
:1015D000DD01DD0A5D080800D2005530D301D500D9
:1015E000D6000130F3020030031CF403F402730A46
:1015F0000319740A03191E2B53085207CF008400E5
:101600000008D000D101D100D0015008D506510802
:10161000D606D30AD401D61F152B21300310D50DC1
:10162000D60DD5061030D606182B0310D50DD60DC5
:101630000830D40A54020318F12A0B2B5608F40080
:101640005508F3000800D500FB238A15D400541F69
:1016500000345508CF005308D000613034238A1578
:10166000FF238A150F240134D1000911DF238A15C5
:10167000D201500852020318482B52084F07F500B8
:1016800084000030DF238A1583138000D20A392BAF
:1016900009150800F4238A155A30F5005330C12388
:1016A0008A15A530F5005330C1238A15E130F501C4
:1016B000C1238A15E230F501C1238A157030F50087
:1016C0002730C1238A152230F501F50AC1238A1576
:1016D0002330F501F50AC1238A151A30F5002530AB
:1016E000C1238A151230F5003130C1238A157530B7
:1016F000CF000330D0003030CA238A157230CF00BB
:101700000330D0002A30CA238A156130CF0005305B
:10171000D0003F30CA238A155630CF000630D000A3
:101720003A30CA238A157930CF003930D001D00A37
:10173000CA238A156F30CF000330D0003E30CA2351
:101740008A156C30CF000330D0003B30CA238A1595
:101750003C30F501C1238A150E30F5002630C12337
:101760008A157330F5005030C1238A152430F501F5
:10177000C1238A152130F501C1238A153D30F501B9
:10178000C12B8312CF000911DF238A157508DF23CF
:1017900009150800D1000911DF238A15D20150086C
:1017A00052020318DD2B52084F0784008A150020CF
:1017B0008A15DF238A15D20ACF2B09150800F300FA
:1017C000F4018910F31FE62B8516E72B8512031011
:1017D000F30D8914051A73140830F40A7402891081
:1017E000031CE22B73080800091189108512851368
:1017F0008515051608000730062470390800E13009
:10180000F501C1238A15E230F501C12BCF00091182
:10181000DF238A150030DF23D0000915080070305F
:10182000F5002730C12B8730F50020308A15C12301
:101830008A150A30F300F401DD268A150A3085176F
:10184000F300F401DD2E8316871083120130871018
:10185000E3278A1501300715E327071187140800CD
:1018600001308714E3278A1501300715E3278A150D
:1018700001300711E32FCF008316871403178F144D
:1018800083120313D20101300711E3278A150715CC
:101890000310D00DD10D871850140130E3278A159D
:1018A0000830D20A5202031C432CCF08031D5B2CC4
:1018B00030248A155C2C23245108F5005008F400CC
:1018C0000800DD01DE01E0010C3060020318792C14
:1018D0000630F3006008EA248A15A83ED5000630D9
:1018E000D600F3006008EA248A15D2248A15E00A9B
:1018F000642C4B30D5006E30D601D60AD2248A151E
:101900004D30D5006F30D601D60AD2248A154C301E
:10191000D5007030D601D60AD2248A155D30D500A4
:101920000230D6007130D2248A155D085E3A031D5C
:101930009F2C5E08F63A031D9F2CEC01A12CEC01B4
:10194000EC0AE00103306002031808004C08DB00D9
:101950006008DC005C07013EAF2C0310DB0CFF3E8F
:10196000031DAD2C5B08DF000330DF055F0BB92CD6
:10197000C82C5F08023A031DCA2C4D08DB00600A20
:10198000C32C0310DB0CFF3E031DC12C5B18CB2CBA
:10199000D801CD2CDF08D801D80A6008F9268A15AD
:1019A000E00AA22CD800D901D9015608590203181F
:1019B000080059085507D7008400580899278A1548
:1019C00083138000D80AF301F30AF401DD268A1597
:1019D000D90AD52CF500F40173087518F407031023
:1019E000F30D0310F50CF508031DEC2C740808002A
:1019F0004E30EF01EF0AD5007330D601D60AD2245B
:101A00008A1504304E020318CE014E30CE0AD300A0
:101A10007330D401D40A6D278A154E08033A031D8A
:101A200008004E30CE01D3007330D401D40A6D27A4
:101A30008A150230EE00C830F300F401DD268A1565
:101A4000D02E6F0B332D00302F02C93003192E0218
:101A5000031C332D4E30EF01CE01D3007330D4017F
:101A6000D40A6D278A15290803190800B608031D32
:101A70003B2DB601B60A2B080319492D75302D02EE
:101A8000303003192C02031C0800AC01AD01AB037C
:101A9000080003302A020318612D291C542D2A083E
:101AA000D8000030F9268A15A91C5B2D2A08D80019
:101AB0000130F9268A15291D612D2A08D800023027
:101AC000F926A901AA01AB01B60108008618792DF3
:101AD0000A30F300F401DD268A15861C76187F2D66
:101AE000B001B1017614FA08031D7F2DFA01FA0A3C
:101AF0007F2D761C7F2DF6147A0B7F2DFA010619A7
:101B0000922D0A30F300F401DD268A15061D7718A0
:101B1000992DB201B3017714FA08031D992D0230F3
:101B2000FA00992D771C992DF7147A08023A0319B7
:101B3000FA018619AC2D0A30F300F401DD268A156E
:101B4000861D7818C42DB401B5017814FA08031D58
:101B5000C42D0430FA00C42D781CC42DF8147A0862
:101B6000043A031DC42DFA01C42DB201B301B4011E
:101B7000B5010800B001B101B401B5010800B00120
:101B8000B101B201B30108007A08003A0319D22D5D
:101B9000013A0319B52D033A0319BA2D063A031970
:101BA000BF2DD22D080066258A15760BF92D013040
:101BB0003102F43003193002031CEC2D370B282EB0
:101BC0001030B700D0268A156430F300F401DD260A
:101BD0008A15D0268A15282E013031022C3003199F
:101BE0003002031C282EB708031D282EB701B70AA0
:101BF000E92D7608033A031D282E0130F601310243
:101C00002C300319300203180B2E0230D80000309C
:101C1000F9268A15282E01303102F43003193002DA
:101C200003181A2E370B282E1130A101A10AB70074
:101C30000230232E3708103A031D282E1130A2013E
:101C4000A20AB7000330EE00B201B301B401B5013E
:101C5000770B4E2E01303302F43003193202031C8D
:101C6000412E3708023A031D7E2E2030B700D026C1
:101C70008A156430F300F401DD268A15D0268A1512
:101C80007E2E013033022C3003193202031C7E2ECB
:101C9000B708031D7E2E0230B7003E2E7708033AA8
:101CA000031D7E2E0130F70133022C30031932025E
:101CB0000318602E0230D8000130F9268A157E2ED6
:101CC00001303302F4300319320237080318712E41
:101CD000023A031D7E2E2130A401A40AB70002306F
:101CE000792E203A031D7E2E2130A501A50AB700CA
:101CF0000330EE00B401B501B001B101780BA22EA2
:101D000001303502F43003193402031C952E3708D4
:101D1000043A031D08004030B700D0268A1564300D
:101D2000F300F401DD268A15D02E013035022C3067
:101D300003193402031C0800B708031D080004300F
:101D4000B700942E7808033A031D08000130F8010B
:101D500035022C30031934020318B12E0230D8009A
:101D6000F92E01303502F430031934023708031814
:101D7000C72E043A031D08004130A701A70AB70087
:101D80000230EE00B201B301B001B1010800403AE7
:101D9000031D08004130A801A80AB7000330C12E76
:101DA00083160710831264300710F300F401DD2658
:101DB00083160710831207140800CF01D00174089E
:101DC0005002031DE52E73084F0203180800D101CD
:101DD0000A3051020318F52ED201203052020318A6
:101DE000F32ED20AED2ED10AE82ECF0A0319D00A1B
:101DF000DF2EDA00DA08031D1E2FD808031D022F7C
:101E0000A0010D2F580B072FA001A00A0D2F580875
:101E1000023A031D0D2F0130A0064C080339023A87
:101E2000031D0800A008031D172F4D10182F4D1477
:101E30004D30D3006F30D401D40A6D2F5A0B472F89
:101E4000D808031D252FA301302F580B2A2FA301DB
:101E5000A30A302F5808023A031D302F0130A30681
:101E60004C08D9000310D90C0310D90C59080339B8
:101E7000023A031D0800A308031D402FCD10412F77
:101E8000CD144D30D3006F30D401D40A6D2F5A08D1
:101E9000023A031D0800D808031D502FA6015B2F2E
:101EA000580B552FA601A60A5B2F5808023A031DAE
:101EB0005B2F0130A6064C0E0F390339023A031D81
:101EC0000800A608031D662F4D11672F4D154D30D4
:101ED000D3006F30D401D40A6D2FD600D701D701BB
:101EE000540857020318080057085307D500840008
:101EF00083130008CF00560886278A150530D60AB6
:101F0000F300F401DD268A15D70A702FD000EA27E6
:101F10008A15A030C8278A15B5278A155008C82702
:101F20008A15B5278A154F08C8278A15B5278A1537
:101F3000F72FD300EA278A15A030C8278A15B527BE
:101F40008A155308C8278A15B5278A15EA278A15DE
:101F5000A130C8278A15B5278A1501303B248A1578
:101F60007408D400F72754080800831687108312DA
:101F700087148316871403178F14831201300313F9
:101F80000711E3278A1501300715E3270711080019
:101F9000F40083168710F501F41FD12F83128714E4
:101FA000D32F8312871001300310F40D0715E32798
:101FB0008A1501300711E3278A150830F50A7502E2
:101FC00003180800CC2FF300F3037308FF3A03193A
:101FD0000800E42F83168710831201308714071539
:101FE000E3278A1501308710E327071108008316BD
:101FF00087108312013087100715E3278714080024
:00000001FF
